{
  "_format": "hh-sol-artifact-1",
  "contractName": "AssetRegistry",
  "sourceName": "contracts/AssetRegistry.sol",
  "abi": [
    {
      "anonymous": false,
      "inputs": [
        {
          "indexed": true,
          "internalType": "address",
          "name": "ownerAddress",
          "type": "address"
        },
        {
          "indexed": true,
          "internalType": "uint256",
          "name": "ownerId",
          "type": "uint256"
        },
        {
          "indexed": false,
          "internalType": "string",
          "name": "title",
          "type": "string"
        },
        {
          "indexed": false,
          "internalType": "string",
          "name": "fullName",
          "type": "string"
        }
      ],
      "name": "OwnerInformationSaved",
      "type": "event"
    },
    {
      "inputs": [],
      "name": "editCost",
      "outputs": [
        {
          "internalType": "uint256",
          "name": "",
          "type": "uint256"
        }
      ],
      "stateMutability": "view",
      "type": "function"
    },
    {
      "inputs": [
        {
          "internalType": "uint256",
          "name": "_id",
          "type": "uint256"
        },
        {
          "internalType": "string",
          "name": "_datePinned",
          "type": "string"
        },
        {
          "internalType": "string",
          "name": "_ipfsHash",
          "type": "string"
        },
        {
          "internalType": "bool",
          "name": "_isVerify",
          "type": "bool"
        },
        {
          "internalType": "string",
          "name": "_assetUrl",
          "type": "string"
        }
      ],
      "name": "editParcelInformation",
      "outputs": [],
      "stateMutability": "payable",
      "type": "function"
    },
    {
      "inputs": [],
      "name": "getAllParcels",
      "outputs": [
        {
          "internalType": "string[]",
          "name": "",
          "type": "string[]"
        }
      ],
      "stateMutability": "view",
      "type": "function"
    },
    {
      "inputs": [],
      "name": "getContractBalance",
      "outputs": [
        {
          "internalType": "uint256",
          "name": "",
          "type": "uint256"
        }
      ],
      "stateMutability": "view",
      "type": "function"
    },
    {
      "inputs": [
        {
          "internalType": "address",
          "name": "_address",
          "type": "address"
        }
      ],
      "name": "getOwnerInformation",
      "outputs": [
        {
          "components": [
            {
              "internalType": "uint256",
              "name": "id",
              "type": "uint256"
            },
            {
              "internalType": "string",
              "name": "fullName",
              "type": "string"
            },
            {
              "internalType": "string",
              "name": "sex",
              "type": "string"
            },
            {
              "internalType": "string",
              "name": "mobileNumber",
              "type": "string"
            },
            {
              "internalType": "string",
              "name": "emailAddress",
              "type": "string"
            },
            {
              "internalType": "string",
              "name": "country",
              "type": "string"
            },
            {
              "internalType": "bool",
              "name": "initialized",
              "type": "bool"
            }
          ],
          "internalType": "struct AssetRegistry.OwnerInformation",
          "name": "",
          "type": "tuple"
        }
      ],
      "stateMutability": "view",
      "type": "function"
    },
    {
      "inputs": [
        {
          "internalType": "address",
          "name": "_owner",
          "type": "address"
        }
      ],
      "name": "getOwnerParcels",
      "outputs": [
        {
          "components": [
            {
              "internalType": "address",
              "name": "owner",
              "type": "address"
            },
            {
              "internalType": "uint256",
              "name": "parcelId",
              "type": "uint256"
            },
            {
              "internalType": "string",
              "name": "datePinned",
              "type": "string"
            },
            {
              "internalType": "string",
              "name": "ipfsHash",
              "type": "string"
            },
            {
              "internalType": "bool",
              "name": "isVerify",
              "type": "bool"
            },
            {
              "internalType": "string",
              "name": "assetUrl",
              "type": "string"
            }
          ],
          "internalType": "struct AssetRegistry.ParcelInformation[]",
          "name": "",
          "type": "tuple[]"
        }
      ],
      "stateMutability": "view",
      "type": "function"
    },
    {
      "inputs": [
        {
          "internalType": "uint256",
          "name": "_parcelId",
          "type": "uint256"
        }
      ],
      "name": "getParcelById",
      "outputs": [
        {
          "components": [
            {
              "internalType": "address",
              "name": "owner",
              "type": "address"
            },
            {
              "internalType": "uint256",
              "name": "parcelId",
              "type": "uint256"
            },
            {
              "internalType": "string",
              "name": "datePinned",
              "type": "string"
            },
            {
              "internalType": "string",
              "name": "ipfsHash",
              "type": "string"
            },
            {
              "internalType": "bool",
              "name": "isVerify",
              "type": "bool"
            },
            {
              "internalType": "string",
              "name": "assetUrl",
              "type": "string"
            }
          ],
          "internalType": "struct AssetRegistry.ParcelInformation",
          "name": "",
          "type": "tuple"
        }
      ],
      "stateMutability": "view",
      "type": "function"
    },
    {
      "inputs": [
        {
          "internalType": "address",
          "name": "_owner",
          "type": "address"
        },
        {
          "internalType": "uint256",
          "name": "_parcelId",
          "type": "uint256"
        }
      ],
      "name": "getParcelByParcelId",
      "outputs": [
        {
          "components": [
            {
              "internalType": "address",
              "name": "owner",
              "type": "address"
            },
            {
              "internalType": "uint256",
              "name": "parcelId",
              "type": "uint256"
            },
            {
              "internalType": "string",
              "name": "datePinned",
              "type": "string"
            },
            {
              "internalType": "string",
              "name": "ipfsHash",
              "type": "string"
            },
            {
              "internalType": "bool",
              "name": "isVerify",
              "type": "bool"
            },
            {
              "internalType": "string",
              "name": "assetUrl",
              "type": "string"
            }
          ],
          "internalType": "struct AssetRegistry.ParcelInformation",
          "name": "",
          "type": "tuple"
        }
      ],
      "stateMutability": "view",
      "type": "function"
    },
    {
      "inputs": [],
      "name": "ownerIdCounter",
      "outputs": [
        {
          "internalType": "uint256",
          "name": "",
          "type": "uint256"
        }
      ],
      "stateMutability": "view",
      "type": "function"
    },
    {
      "inputs": [],
      "name": "parcelDocumentsCounter",
      "outputs": [
        {
          "internalType": "uint256",
          "name": "",
          "type": "uint256"
        }
      ],
      "stateMutability": "view",
      "type": "function"
    },
    {
      "inputs": [
        {
          "internalType": "uint256",
          "name": "",
          "type": "uint256"
        }
      ],
      "name": "parcels",
      "outputs": [
        {
          "internalType": "address",
          "name": "owner",
          "type": "address"
        },
        {
          "internalType": "uint256",
          "name": "parcelId",
          "type": "uint256"
        },
        {
          "internalType": "string",
          "name": "datePinned",
          "type": "string"
        },
        {
          "internalType": "string",
          "name": "ipfsHash",
          "type": "string"
        },
        {
          "internalType": "bool",
          "name": "isVerify",
          "type": "bool"
        },
        {
          "internalType": "string",
          "name": "assetUrl",
          "type": "string"
        }
      ],
      "stateMutability": "view",
      "type": "function"
    },
    {
      "inputs": [
        {
          "internalType": "address",
          "name": "_owner",
          "type": "address"
        },
        {
          "internalType": "uint256",
          "name": "_parcelId",
          "type": "uint256"
        },
        {
          "internalType": "string",
          "name": "_datePinned",
          "type": "string"
        },
        {
          "internalType": "string",
          "name": "_ipfsHash",
          "type": "string"
        },
        {
          "internalType": "bool",
          "name": "_isVerify",
          "type": "bool"
        },
        {
          "internalType": "string",
          "name": "_assetUrl",
          "type": "string"
        }
      ],
      "name": "saveParcelInformation",
      "outputs": [],
      "stateMutability": "nonpayable",
      "type": "function"
    },
    {
      "inputs": [
        {
          "internalType": "address",
          "name": "_address",
          "type": "address"
        },
        {
          "internalType": "string",
          "name": "_fullName",
          "type": "string"
        },
        {
          "internalType": "string",
          "name": "_sex",
          "type": "string"
        },
        {
          "internalType": "string",
          "name": "_emailAddress",
          "type": "string"
        },
        {
          "internalType": "string",
          "name": "_mobileNumber",
          "type": "string"
        },
        {
          "internalType": "string",
          "name": "_country",
          "type": "string"
        }
      ],
      "name": "saveWalletInformation",
      "outputs": [],
      "stateMutability": "nonpayable",
      "type": "function"
    },
    {
      "inputs": [
        {
          "internalType": "address",
          "name": "",
          "type": "address"
        },
        {
          "internalType": "uint256",
          "name": "",
          "type": "uint256"
        }
      ],
      "name": "userParcels",
      "outputs": [
        {
          "internalType": "address",
          "name": "owner",
          "type": "address"
        },
        {
          "internalType": "uint256",
          "name": "parcelId",
          "type": "uint256"
        },
        {
          "internalType": "string",
          "name": "datePinned",
          "type": "string"
        },
        {
          "internalType": "string",
          "name": "ipfsHash",
          "type": "string"
        },
        {
          "internalType": "bool",
          "name": "isVerify",
          "type": "bool"
        },
        {
          "internalType": "string",
          "name": "assetUrl",
          "type": "string"
        }
      ],
      "stateMutability": "view",
      "type": "function"
    },
    {
      "inputs": [
        {
          "internalType": "address",
          "name": "",
          "type": "address"
        }
      ],
      "name": "walletInformation",
      "outputs": [
        {
          "internalType": "uint256",
          "name": "id",
          "type": "uint256"
        },
        {
          "internalType": "string",
          "name": "fullName",
          "type": "string"
        },
        {
          "internalType": "string",
          "name": "sex",
          "type": "string"
        },
        {
          "internalType": "string",
          "name": "mobileNumber",
          "type": "string"
        },
        {
          "internalType": "string",
          "name": "emailAddress",
          "type": "string"
        },
        {
          "internalType": "string",
          "name": "country",
          "type": "string"
        },
        {
          "internalType": "bool",
          "name": "initialized",
          "type": "bool"
        }
      ],
      "stateMutability": "view",
      "type": "function"
    },
    {
      "inputs": [],
      "name": "withdrawEther",
      "outputs": [],
      "stateMutability": "nonpayable",
      "type": "function"
    },
    {
      "stateMutability": "payable",
      "type": "receive"
    }
  ],
  "bytecode": "0x6080604052655af3107a400060055534801561001a57600080fd5b506122428061002a6000396000f3fe6080604052600436106100f75760003560e01c80637362377b1161008a578063ca2b29eb11610059578063ca2b29eb146102b7578063d2ae49df146102d7578063d8ca2021146102ed578063fdd81aaf1461030d57600080fd5b80637362377b1461021b5780637d07d94e14610230578063a0fa8ede14610252578063a8b9b5141461028457600080fd5b806368725cc0116100c657806368725cc0146101a85780636f9fb98a146101bb5780637096bb6f146101d85780637186fc94146101ee57600080fd5b80631f51052d146101035780632ea68e39146101255780632f948ecd1461015b57806353092aa11461017b57600080fd5b366100fe57005b600080fd5b34801561010f57600080fd5b5061012361011e366004611aac565b610323565b005b34801561013157600080fd5b50610145610140366004611b8d565b6104d5565b6040516101529190611c6e565b60405180910390f35b34801561016757600080fd5b50610123610176366004611ce2565b610733565b34801561018757600080fd5b5061019b610196366004611b8d565b61091e565b6040516101529190611d64565b6101236101b6366004611e1a565b610c7e565b3480156101c757600080fd5b50475b604051908152602001610152565b3480156101e457600080fd5b506101ca60045481565b3480156101fa57600080fd5b5061020e610209366004611ebd565b610db4565b6040516101529190611ee7565b34801561022757600080fd5b50610123611089565b34801561023c57600080fd5b506102456110bb565b6040516101529190611efa565b34801561025e57600080fd5b5061027261026d366004611f51565b6111f6565b60405161015296959493929190611f6a565b34801561029057600080fd5b506102a461029f366004611b8d565b6113ea565b6040516101529796959493929190611fcc565b3480156102c357600080fd5b506102726102d2366004611ebd565b6116d0565b3480156102e357600080fd5b506101ca60055481565b3480156102f957600080fd5b5061020e610308366004611f51565b611723565b34801561031957600080fd5b506101ca60035481565b6001600160a01b03861660009081526002602052604090206006015460ff16156103945760405162461bcd60e51b815260206004820152601c60248201527f4f776e65722070726f66696c6520616c7265616479206578697374730000000060448201526064015b60405180910390fd5b600380549060006103a483612060565b90915550506040805160e08101825260035481526020808201888152828401889052606083018690526080830187905260a08301859052600160c084018190526001600160a01b038b166000908152600290935293909120825181559051919283929082019061041490826120fe565b506040820151600282019061042990826120fe565b506060820151600382019061043e90826120fe565b506080820151600482019061045390826120fe565b5060a0820151600582019061046890826120fe565b5060c091909101516006909101805460ff19169115159190911790556003546040516001600160a01b038916907fd947a1cdc118964e944c3ba058e97387f9cdd458c483252dfff919db565c96fc906104c4908a9089906121be565b60405180910390a350505050505050565b6001600160a01b0381166000908152600160209081526040808320805482518185028101850190935280835260609492939192909184015b828210156107285760008481526020908190206040805160c0810182526006860290920180546001600160a01b031683526001810154938301939093526002830180549293929184019161056090612079565b80601f016020809104026020016040519081016040528092919081815260200182805461058c90612079565b80156105d95780601f106105ae576101008083540402835291602001916105d9565b820191906000526020600020905b8154815290600101906020018083116105bc57829003601f168201915b505050505081526020016003820180546105f290612079565b80601f016020809104026020016040519081016040528092919081815260200182805461061e90612079565b801561066b5780601f106106405761010080835404028352916020019161066b565b820191906000526020600020905b81548152906001019060200180831161064e57829003601f168201915b5050509183525050600482015460ff161515602082015260058201805460409092019161069790612079565b80601f01602080910402602001604051908101604052809291908181526020018280546106c390612079565b80156107105780601f106106e557610100808354040283529160200191610710565b820191906000526020600020905b8154815290600101906020018083116106f357829003601f168201915b5050505050815250508152602001906001019061050d565b505050509050919050565b6004805490600061074383612060565b90915550506040805160c0810182526001600160a01b0388811682526020820188815292820187815260608301879052851515608084015260a083018590526000805460018101825590805283517f290decd9548b62a8d60345a988386fc84ba6bc95484008f6362f93160ef3e563600690920291820180546001600160a01b0319169190941617835593517f290decd9548b62a8d60345a988386fc84ba6bc95484008f6362f93160ef3e56485015551919283927f290decd9548b62a8d60345a988386fc84ba6bc95484008f6362f93160ef3e5659091019061082790826120fe565b506060820151600382019061083c90826120fe565b50608082015160048201805460ff191691151591909117905560a0820151600582019061086990826120fe565b5050506001600160a01b0387811660009081526001602081815260408084208054808501825590855293829020865160069095020180546001600160a01b031916949095169390931784558401519083015582015182919060028201906108d090826120fe565b50606082015160038201906108e590826120fe565b50608082015160048201805460ff191691151591909117905560a0820151600582019061091290826120fe565b50505050505050505050565b6109606040518060e001604052806000815260200160608152602001606081526020016060815260200160608152602001606081526020016000151581525090565b6001600160a01b038216600090815260026020908152604091829020825160e0810190935280548352600181018054919284019161099d90612079565b80601f01602080910402602001604051908101604052809291908181526020018280546109c990612079565b8015610a165780601f106109eb57610100808354040283529160200191610a16565b820191906000526020600020905b8154815290600101906020018083116109f957829003601f168201915b50505050508152602001600282018054610a2f90612079565b80601f0160208091040260200160405190810160405280929190818152602001828054610a5b90612079565b8015610aa85780601f10610a7d57610100808354040283529160200191610aa8565b820191906000526020600020905b815481529060010190602001808311610a8b57829003601f168201915b50505050508152602001600382018054610ac190612079565b80601f0160208091040260200160405190810160405280929190818152602001828054610aed90612079565b8015610b3a5780601f10610b0f57610100808354040283529160200191610b3a565b820191906000526020600020905b815481529060010190602001808311610b1d57829003601f168201915b50505050508152602001600482018054610b5390612079565b80601f0160208091040260200160405190810160405280929190818152602001828054610b7f90612079565b8015610bcc5780601f10610ba157610100808354040283529160200191610bcc565b820191906000526020600020905b815481529060010190602001808311610baf57829003601f168201915b50505050508152602001600582018054610be590612079565b80601f0160208091040260200160405190810160405280929190818152602001828054610c1190612079565b8015610c5e5780601f10610c3357610100808354040283529160200191610c5e565b820191906000526020600020905b815481529060010190602001808311610c4157829003601f168201915b50505091835250506006919091015460ff16151560209091015292915050565b6000548510610cca5760405162461bcd60e51b815260206004820152601860248201527714185c98d95b08125108191bd95cc81b9bdd08195e1a5cdd60421b604482015260640161038b565b6000808681548110610cde57610cde6121e3565b906000526020600020906006020190505a600554610cfc91906121f9565b341015610d405760405162461bcd60e51b8152602060048201526012602482015271496e73756666696369656e742066756e647360701b604482015260640161038b565b600554604051339180156108fc02916000818181858888f19350505050158015610d6e573d6000803e3d6000fd5b5060028101610d7d86826120fe565b5060038101610d8c85826120fe565b5060048101805460ff191684151517905560058101610dab83826120fe565b50505050505050565b610dbc6119ac565b6001600160a01b0383166000908152600160205260408120905b81548110156110475783828281548110610df257610df26121e3565b9060005260206000209060060201600101540361103f57818181548110610e1b57610e1b6121e3565b90600052602060002090600602016040518060c00160405290816000820160009054906101000a90046001600160a01b03166001600160a01b03166001600160a01b0316815260200160018201548152602001600282018054610e7d90612079565b80601f0160208091040260200160405190810160405280929190818152602001828054610ea990612079565b8015610ef65780601f10610ecb57610100808354040283529160200191610ef6565b820191906000526020600020905b815481529060010190602001808311610ed957829003601f168201915b50505050508152602001600382018054610f0f90612079565b80601f0160208091040260200160405190810160405280929190818152602001828054610f3b90612079565b8015610f885780601f10610f5d57610100808354040283529160200191610f88565b820191906000526020600020905b815481529060010190602001808311610f6b57829003601f168201915b5050509183525050600482015460ff1615156020820152600582018054604090920191610fb490612079565b80601f0160208091040260200160405190810160405280929190818152602001828054610fe090612079565b801561102d5780601f106110025761010080835404028352916020019161102d565b820191906000526020600020905b81548152906001019060200180831161101057829003601f168201915b50505050508152505092505050611083565b600101610dd6565b5060405162461bcd60e51b815260206004820152601060248201526f14185c98d95b081b9bdd08199bdd5b9960821b604482015260640161038b565b92915050565b604051339081904780156108fc02916000818181858888f193505050501580156110b7573d6000803e3d6000fd5b5050565b600080546060919067ffffffffffffffff8111156110db576110db611a09565b60405190808252806020026020018201604052801561110e57816020015b60608152602001906001900390816110f95790505b50905060005b6000548110156111f05760008181548110611131576111316121e3565b9060005260206000209060060201600301805461114d90612079565b80601f016020809104026020016040519081016040528092919081815260200182805461117990612079565b80156111c65780601f1061119b576101008083540402835291602001916111c6565b820191906000526020600020905b8154815290600101906020018083116111a957829003601f168201915b50505050508282815181106111dd576111dd6121e3565b6020908102919091010152600101611114565b50919050565b6000818154811061120657600080fd5b60009182526020909120600690910201805460018201546002830180546001600160a01b03909316945090929161123c90612079565b80601f016020809104026020016040519081016040528092919081815260200182805461126890612079565b80156112b55780601f1061128a576101008083540402835291602001916112b5565b820191906000526020600020905b81548152906001019060200180831161129857829003601f168201915b5050505050908060030180546112ca90612079565b80601f01602080910402602001604051908101604052809291908181526020018280546112f690612079565b80156113435780601f1061131857610100808354040283529160200191611343565b820191906000526020600020905b81548152906001019060200180831161132657829003601f168201915b5050506004840154600585018054949560ff90921694919350915061136790612079565b80601f016020809104026020016040519081016040528092919081815260200182805461139390612079565b80156113e05780601f106113b5576101008083540402835291602001916113e0565b820191906000526020600020905b8154815290600101906020018083116113c357829003601f168201915b5050505050905086565b6002602052600090815260409020805460018201805491929161140c90612079565b80601f016020809104026020016040519081016040528092919081815260200182805461143890612079565b80156114855780601f1061145a57610100808354040283529160200191611485565b820191906000526020600020905b81548152906001019060200180831161146857829003601f168201915b50505050509080600201805461149a90612079565b80601f01602080910402602001604051908101604052809291908181526020018280546114c690612079565b80156115135780601f106114e857610100808354040283529160200191611513565b820191906000526020600020905b8154815290600101906020018083116114f657829003601f168201915b50505050509080600301805461152890612079565b80601f016020809104026020016040519081016040528092919081815260200182805461155490612079565b80156115a15780601f10611576576101008083540402835291602001916115a1565b820191906000526020600020905b81548152906001019060200180831161158457829003601f168201915b5050505050908060040180546115b690612079565b80601f01602080910402602001604051908101604052809291908181526020018280546115e290612079565b801561162f5780601f106116045761010080835404028352916020019161162f565b820191906000526020600020905b81548152906001019060200180831161161257829003601f168201915b50505050509080600501805461164490612079565b80601f016020809104026020016040519081016040528092919081815260200182805461167090612079565b80156116bd5780601f10611692576101008083540402835291602001916116bd565b820191906000526020600020905b8154815290600101906020018083116116a057829003601f168201915b5050506006909301549192505060ff1687565b600160205281600052604060002081815481106116ec57600080fd5b60009182526020909120600690910201805460018201546002830180546001600160a01b0390931695509093509061123c90612079565b61172b6119ac565b60005482106117775760405162461bcd60e51b815260206004820152601860248201527714185c98d95b08125108191bd95cc81b9bdd08195e1a5cdd60421b604482015260640161038b565b6000828154811061178a5761178a6121e3565b90600052602060002090600602016040518060c00160405290816000820160009054906101000a90046001600160a01b03166001600160a01b03166001600160a01b03168152602001600182015481526020016002820180546117ec90612079565b80601f016020809104026020016040519081016040528092919081815260200182805461181890612079565b80156118655780601f1061183a57610100808354040283529160200191611865565b820191906000526020600020905b81548152906001019060200180831161184857829003601f168201915b5050505050815260200160038201805461187e90612079565b80601f01602080910402602001604051908101604052809291908181526020018280546118aa90612079565b80156118f75780601f106118cc576101008083540402835291602001916118f7565b820191906000526020600020905b8154815290600101906020018083116118da57829003601f168201915b5050509183525050600482015460ff161515602082015260058201805460409092019161192390612079565b80601f016020809104026020016040519081016040528092919081815260200182805461194f90612079565b801561199c5780601f106119715761010080835404028352916020019161199c565b820191906000526020600020905b81548152906001019060200180831161197f57829003601f168201915b5050505050815250509050919050565b6040518060c0016040528060006001600160a01b03168152602001600081526020016060815260200160608152602001600015158152602001606081525090565b80356001600160a01b0381168114611a0457600080fd5b919050565b634e487b7160e01b600052604160045260246000fd5b600082601f830112611a3057600080fd5b813567ffffffffffffffff80821115611a4b57611a4b611a09565b604051601f8301601f19908116603f01168101908282118183101715611a7357611a73611a09565b81604052838152866020858801011115611a8c57600080fd5b836020870160208301376000602085830101528094505050505092915050565b60008060008060008060c08789031215611ac557600080fd5b611ace876119ed565b9550602087013567ffffffffffffffff80821115611aeb57600080fd5b611af78a838b01611a1f565b96506040890135915080821115611b0d57600080fd5b611b198a838b01611a1f565b95506060890135915080821115611b2f57600080fd5b611b3b8a838b01611a1f565b94506080890135915080821115611b5157600080fd5b611b5d8a838b01611a1f565b935060a0890135915080821115611b7357600080fd5b50611b8089828a01611a1f565b9150509295509295509295565b600060208284031215611b9f57600080fd5b611ba8826119ed565b9392505050565b6000815180845260005b81811015611bd557602081850181015186830182015201611bb9565b506000602082860101526020601f19601f83011685010191505092915050565b60018060a01b038151168252602081015160208301526000604082015160c06040850152611c2660c0850182611baf565b905060608301518482036060860152611c3f8282611baf565b91505060808301511515608085015260a083015184820360a0860152611c658282611baf565b95945050505050565b600060208083016020845280855180835260408601915060408160051b87010192506020870160005b82811015611cc557603f19888603018452611cb3858351611bf5565b94509285019290850190600101611c97565b5092979650505050505050565b80358015158114611a0457600080fd5b60008060008060008060c08789031215611cfb57600080fd5b611d04876119ed565b955060208701359450604087013567ffffffffffffffff80821115611d2857600080fd5b611d348a838b01611a1f565b95506060890135915080821115611d4a57600080fd5b611d568a838b01611a1f565b9450611b5d60808a01611cd2565b60208152815160208201526000602083015160e06040840152611d8b610100840182611baf565b90506040840151601f1980858403016060860152611da98383611baf565b92506060860151915080858403016080860152611dc68383611baf565b925060808601519150808584030160a0860152611de38383611baf565b925060a08601519150808584030160c086015250611e018282611baf565b91505060c0840151151560e08401528091505092915050565b600080600080600060a08688031215611e3257600080fd5b85359450602086013567ffffffffffffffff80821115611e5157600080fd5b611e5d89838a01611a1f565b95506040880135915080821115611e7357600080fd5b611e7f89838a01611a1f565b9450611e8d60608901611cd2565b93506080880135915080821115611ea357600080fd5b50611eb088828901611a1f565b9150509295509295909350565b60008060408385031215611ed057600080fd5b611ed9836119ed565b946020939093013593505050565b602081526000611ba86020830184611bf5565b600060208083016020845280855180835260408601915060408160051b87010192506020870160005b82811015611cc557603f19888603018452611f3f858351611baf565b94509285019290850190600101611f23565b600060208284031215611f6357600080fd5b5035919050565b60018060a01b038716815285602082015260c060408201526000611f9160c0830187611baf565b8281036060840152611fa38187611baf565b9050841515608084015282810360a0840152611fbf8185611baf565b9998505050505050505050565b87815260e060208201526000611fe560e0830189611baf565b8281036040840152611ff78189611baf565b9050828103606084015261200b8188611baf565b9050828103608084015261201f8187611baf565b905082810360a08401526120338186611baf565b91505082151560c083015298975050505050505050565b634e487b7160e01b600052601160045260246000fd5b6000600182016120725761207261204a565b5060010190565b600181811c9082168061208d57607f821691505b6020821081036111f057634e487b7160e01b600052602260045260246000fd5b601f8211156120f9576000816000526020600020601f850160051c810160208610156120d65750805b601f850160051c820191505b818110156120f5578281556001016120e2565b5050505b505050565b815167ffffffffffffffff81111561211857612118611a09565b61212c816121268454612079565b846120ad565b602080601f83116001811461216157600084156121495750858301515b600019600386901b1c1916600185901b1785556120f5565b600085815260208120601f198616915b8281101561219057888601518255948401946001909101908401612171565b50858210156121ae5787850151600019600388901b60f8161c191681555b5050505050600190811b01905550565b6040815260006121d16040830185611baf565b8281036020840152611c658185611baf565b634e487b7160e01b600052603260045260246000fd5b808201808211156110835761108361204a56fea2646970667358221220fa1f4de953961bfe4d4f01c29d79ab0b663d81c37056424e14ba7d4e7e39dae364736f6c63430008180033",
  "linkReferences": {},
  "deployedLinkReferences": {}
}