{
  "_format": "hh-sol-artifact-1",
  "contractName": "AssetRegistry",
  "sourceName": "contracts/AssetRegistry.sol",
  "abi": [
    {
      "anonymous": false,
      "inputs": [
        {
          "indexed": true,
          "internalType": "address",
          "name": "ownerAddress",
          "type": "address"
        },
        {
          "indexed": true,
          "internalType": "uint256",
          "name": "ownerId",
          "type": "uint256"
        },
        {
          "indexed": false,
          "internalType": "string",
          "name": "title",
          "type": "string"
        },
        {
          "indexed": false,
          "internalType": "string",
          "name": "fullName",
          "type": "string"
        }
      ],
      "name": "OwnerInformationSaved",
      "type": "event"
    },
    {
      "inputs": [],
      "name": "editCost",
      "outputs": [
        {
          "internalType": "uint256",
          "name": "",
          "type": "uint256"
        }
      ],
      "stateMutability": "view",
      "type": "function"
    },
    {
      "inputs": [
        {
          "internalType": "uint256",
          "name": "_id",
          "type": "uint256"
        },
        {
          "internalType": "string",
          "name": "_datePinned",
          "type": "string"
        },
        {
          "internalType": "string",
          "name": "_ipfsHash",
          "type": "string"
        },
        {
          "internalType": "bool",
          "name": "_isVerify",
          "type": "bool"
        },
        {
          "internalType": "string",
          "name": "_assetUrl",
          "type": "string"
        }
      ],
      "name": "editParcelInformation",
      "outputs": [],
      "stateMutability": "payable",
      "type": "function"
    },
    {
      "inputs": [],
      "name": "getAllParcels",
      "outputs": [
        {
          "internalType": "string[]",
          "name": "",
          "type": "string[]"
        }
      ],
      "stateMutability": "view",
      "type": "function"
    },
    {
      "inputs": [],
      "name": "getContractBalance",
      "outputs": [
        {
          "internalType": "uint256",
          "name": "",
          "type": "uint256"
        }
      ],
      "stateMutability": "view",
      "type": "function"
    },
    {
      "inputs": [
        {
          "internalType": "address",
          "name": "_address",
          "type": "address"
        }
      ],
      "name": "getOwnerInformation",
      "outputs": [
        {
          "components": [
            {
              "internalType": "uint256",
              "name": "id",
              "type": "uint256"
            },
            {
              "internalType": "string",
              "name": "fullName",
              "type": "string"
            },
            {
              "internalType": "string",
              "name": "sex",
              "type": "string"
            },
            {
              "internalType": "string",
              "name": "mobileNumber",
              "type": "string"
            },
            {
              "internalType": "string",
              "name": "emailAddress",
              "type": "string"
            },
            {
              "internalType": "string",
              "name": "country",
              "type": "string"
            },
            {
              "internalType": "bool",
              "name": "initialized",
              "type": "bool"
            }
          ],
          "internalType": "struct AssetRegistry.OwnerInformation",
          "name": "",
          "type": "tuple"
        }
      ],
      "stateMutability": "view",
      "type": "function"
    },
    {
      "inputs": [
        {
          "internalType": "address",
          "name": "_owner",
          "type": "address"
        }
      ],
      "name": "getOwnerParcels",
      "outputs": [
        {
          "components": [
            {
              "internalType": "address",
              "name": "owner",
              "type": "address"
            },
            {
              "internalType": "uint256",
              "name": "parcelId",
              "type": "uint256"
            },
            {
              "internalType": "string",
              "name": "datePinned",
              "type": "string"
            },
            {
              "internalType": "string",
              "name": "ipfsHash",
              "type": "string"
            },
            {
              "internalType": "bool",
              "name": "isVerify",
              "type": "bool"
            },
            {
              "internalType": "string",
              "name": "assetUrl",
              "type": "string"
            }
          ],
          "internalType": "struct AssetRegistry.ParcelInformation[]",
          "name": "",
          "type": "tuple[]"
        }
      ],
      "stateMutability": "view",
      "type": "function"
    },
    {
      "inputs": [
        {
          "internalType": "uint256",
          "name": "_parcelId",
          "type": "uint256"
        }
      ],
      "name": "getParcelById",
      "outputs": [
        {
          "components": [
            {
              "internalType": "address",
              "name": "owner",
              "type": "address"
            },
            {
              "internalType": "uint256",
              "name": "parcelId",
              "type": "uint256"
            },
            {
              "internalType": "string",
              "name": "datePinned",
              "type": "string"
            },
            {
              "internalType": "string",
              "name": "ipfsHash",
              "type": "string"
            },
            {
              "internalType": "bool",
              "name": "isVerify",
              "type": "bool"
            },
            {
              "internalType": "string",
              "name": "assetUrl",
              "type": "string"
            }
          ],
          "internalType": "struct AssetRegistry.ParcelInformation",
          "name": "",
          "type": "tuple"
        }
      ],
      "stateMutability": "view",
      "type": "function"
    },
    {
      "inputs": [
        {
          "internalType": "address",
          "name": "_owner",
          "type": "address"
        },
        {
          "internalType": "uint256",
          "name": "_parcelId",
          "type": "uint256"
        }
      ],
      "name": "getParcelByParcelId",
      "outputs": [
        {
          "components": [
            {
              "internalType": "address",
              "name": "owner",
              "type": "address"
            },
            {
              "internalType": "uint256",
              "name": "parcelId",
              "type": "uint256"
            },
            {
              "internalType": "string",
              "name": "datePinned",
              "type": "string"
            },
            {
              "internalType": "string",
              "name": "ipfsHash",
              "type": "string"
            },
            {
              "internalType": "bool",
              "name": "isVerify",
              "type": "bool"
            },
            {
              "internalType": "string",
              "name": "assetUrl",
              "type": "string"
            }
          ],
          "internalType": "struct AssetRegistry.ParcelInformation",
          "name": "",
          "type": "tuple"
        }
      ],
      "stateMutability": "view",
      "type": "function"
    },
    {
      "inputs": [
        {
          "internalType": "address",
          "name": "_owner",
          "type": "address"
        },
        {
          "internalType": "uint256",
          "name": "_parcelId",
          "type": "uint256"
        }
      ],
      "name": "getSingleParcelIpfsHash",
      "outputs": [
        {
          "internalType": "string",
          "name": "",
          "type": "string"
        }
      ],
      "stateMutability": "view",
      "type": "function"
    },
    {
      "inputs": [],
      "name": "ownerIdCounter",
      "outputs": [
        {
          "internalType": "uint256",
          "name": "",
          "type": "uint256"
        }
      ],
      "stateMutability": "view",
      "type": "function"
    },
    {
      "inputs": [],
      "name": "parcelDocumentsCounter",
      "outputs": [
        {
          "internalType": "uint256",
          "name": "",
          "type": "uint256"
        }
      ],
      "stateMutability": "view",
      "type": "function"
    },
    {
      "inputs": [
        {
          "internalType": "uint256",
          "name": "",
          "type": "uint256"
        }
      ],
      "name": "parcels",
      "outputs": [
        {
          "internalType": "address",
          "name": "owner",
          "type": "address"
        },
        {
          "internalType": "uint256",
          "name": "parcelId",
          "type": "uint256"
        },
        {
          "internalType": "string",
          "name": "datePinned",
          "type": "string"
        },
        {
          "internalType": "string",
          "name": "ipfsHash",
          "type": "string"
        },
        {
          "internalType": "bool",
          "name": "isVerify",
          "type": "bool"
        },
        {
          "internalType": "string",
          "name": "assetUrl",
          "type": "string"
        }
      ],
      "stateMutability": "view",
      "type": "function"
    },
    {
      "inputs": [
        {
          "internalType": "address",
          "name": "_owner",
          "type": "address"
        },
        {
          "internalType": "uint256",
          "name": "_parcelId",
          "type": "uint256"
        },
        {
          "internalType": "string",
          "name": "_datePinned",
          "type": "string"
        },
        {
          "internalType": "string",
          "name": "_ipfsHash",
          "type": "string"
        },
        {
          "internalType": "bool",
          "name": "_isVerify",
          "type": "bool"
        },
        {
          "internalType": "string",
          "name": "_assetUrl",
          "type": "string"
        }
      ],
      "name": "saveParcelInformation",
      "outputs": [],
      "stateMutability": "nonpayable",
      "type": "function"
    },
    {
      "inputs": [
        {
          "internalType": "address",
          "name": "_address",
          "type": "address"
        },
        {
          "internalType": "string",
          "name": "_fullName",
          "type": "string"
        },
        {
          "internalType": "string",
          "name": "_sex",
          "type": "string"
        },
        {
          "internalType": "string",
          "name": "_emailAddress",
          "type": "string"
        },
        {
          "internalType": "string",
          "name": "_mobileNumber",
          "type": "string"
        },
        {
          "internalType": "string",
          "name": "_country",
          "type": "string"
        }
      ],
      "name": "saveWalletInformation",
      "outputs": [],
      "stateMutability": "nonpayable",
      "type": "function"
    },
    {
      "inputs": [
        {
          "internalType": "address",
          "name": "",
          "type": "address"
        },
        {
          "internalType": "uint256",
          "name": "",
          "type": "uint256"
        }
      ],
      "name": "userParcels",
      "outputs": [
        {
          "internalType": "address",
          "name": "owner",
          "type": "address"
        },
        {
          "internalType": "uint256",
          "name": "parcelId",
          "type": "uint256"
        },
        {
          "internalType": "string",
          "name": "datePinned",
          "type": "string"
        },
        {
          "internalType": "string",
          "name": "ipfsHash",
          "type": "string"
        },
        {
          "internalType": "bool",
          "name": "isVerify",
          "type": "bool"
        },
        {
          "internalType": "string",
          "name": "assetUrl",
          "type": "string"
        }
      ],
      "stateMutability": "view",
      "type": "function"
    },
    {
      "inputs": [
        {
          "internalType": "address",
          "name": "",
          "type": "address"
        }
      ],
      "name": "walletInformation",
      "outputs": [
        {
          "internalType": "uint256",
          "name": "id",
          "type": "uint256"
        },
        {
          "internalType": "string",
          "name": "fullName",
          "type": "string"
        },
        {
          "internalType": "string",
          "name": "sex",
          "type": "string"
        },
        {
          "internalType": "string",
          "name": "mobileNumber",
          "type": "string"
        },
        {
          "internalType": "string",
          "name": "emailAddress",
          "type": "string"
        },
        {
          "internalType": "string",
          "name": "country",
          "type": "string"
        },
        {
          "internalType": "bool",
          "name": "initialized",
          "type": "bool"
        }
      ],
      "stateMutability": "view",
      "type": "function"
    },
    {
      "inputs": [],
      "name": "withdrawEther",
      "outputs": [],
      "stateMutability": "nonpayable",
      "type": "function"
    },
    {
      "stateMutability": "payable",
      "type": "receive"
    }
  ],
  "bytecode": "0x6080604052655af3107a400060055534801561001a57600080fd5b506124018061002a6000396000f3fe6080604052600436106101025760003560e01c80637186fc9411610095578063a8b9b51411610064578063a8b9b514146102bc578063ca2b29eb146102ef578063d2ae49df1461030f578063d8ca202114610325578063fdd81aaf1461034557600080fd5b80637186fc94146102265780637362377b146102535780637d07d94e14610268578063a0fa8ede1461028a57600080fd5b806363da4ec5116100d157806363da4ec5146101b357806368725cc0146101e05780636f9fb98a146101f35780637096bb6f1461021057600080fd5b80631f51052d1461010e5780632ea68e39146101305780632f948ecd1461016657806353092aa11461018657600080fd5b3661010957005b600080fd5b34801561011a57600080fd5b5061012e610129366004611c58565b61035b565b005b34801561013c57600080fd5b5061015061014b366004611d39565b61050d565b60405161015d9190611e1a565b60405180910390f35b34801561017257600080fd5b5061012e610181366004611e8e565b61076b565b34801561019257600080fd5b506101a66101a1366004611d39565b610956565b60405161015d9190611f10565b3480156101bf57600080fd5b506101d36101ce366004611fc6565b610cb6565b60405161015d9190611ff0565b61012e6101ee366004612003565b610e30565b3480156101ff57600080fd5b50475b60405190815260200161015d565b34801561021c57600080fd5b5061020260045481565b34801561023257600080fd5b50610246610241366004611fc6565b610f66565b60405161015d91906120a6565b34801561025f57600080fd5b5061012e611235565b34801561027457600080fd5b5061027d611267565b60405161015d91906120b9565b34801561029657600080fd5b506102aa6102a5366004612110565b6113a2565b60405161015d96959493929190612129565b3480156102c857600080fd5b506102dc6102d7366004611d39565b611596565b60405161015d979695949392919061218b565b3480156102fb57600080fd5b506102aa61030a366004611fc6565b61187c565b34801561031b57600080fd5b5061020260055481565b34801561033157600080fd5b50610246610340366004612110565b6118cf565b34801561035157600080fd5b5061020260035481565b6001600160a01b03861660009081526002602052604090206006015460ff16156103cc5760405162461bcd60e51b815260206004820152601c60248201527f4f776e65722070726f66696c6520616c7265616479206578697374730000000060448201526064015b60405180910390fd5b600380549060006103dc8361221f565b90915550506040805160e08101825260035481526020808201888152828401889052606083018690526080830187905260a08301859052600160c084018190526001600160a01b038b166000908152600290935293909120825181559051919283929082019061044c90826122bd565b506040820151600282019061046190826122bd565b506060820151600382019061047690826122bd565b506080820151600482019061048b90826122bd565b5060a082015160058201906104a090826122bd565b5060c091909101516006909101805460ff19169115159190911790556003546040516001600160a01b038916907fd947a1cdc118964e944c3ba058e97387f9cdd458c483252dfff919db565c96fc906104fc908a90899061237d565b60405180910390a350505050505050565b6001600160a01b0381166000908152600160209081526040808320805482518185028101850190935280835260609492939192909184015b828210156107605760008481526020908190206040805160c0810182526006860290920180546001600160a01b031683526001810154938301939093526002830180549293929184019161059890612238565b80601f01602080910402602001604051908101604052809291908181526020018280546105c490612238565b80156106115780601f106105e657610100808354040283529160200191610611565b820191906000526020600020905b8154815290600101906020018083116105f457829003601f168201915b5050505050815260200160038201805461062a90612238565b80601f016020809104026020016040519081016040528092919081815260200182805461065690612238565b80156106a35780601f10610678576101008083540402835291602001916106a3565b820191906000526020600020905b81548152906001019060200180831161068657829003601f168201915b5050509183525050600482015460ff16151560208201526005820180546040909201916106cf90612238565b80601f01602080910402602001604051908101604052809291908181526020018280546106fb90612238565b80156107485780601f1061071d57610100808354040283529160200191610748565b820191906000526020600020905b81548152906001019060200180831161072b57829003601f168201915b50505050508152505081526020019060010190610545565b505050509050919050565b6004805490600061077b8361221f565b90915550506040805160c0810182526001600160a01b0388811682526020820188815292820187815260608301879052851515608084015260a083018590526000805460018101825590805283517f290decd9548b62a8d60345a988386fc84ba6bc95484008f6362f93160ef3e563600690920291820180546001600160a01b0319169190941617835593517f290decd9548b62a8d60345a988386fc84ba6bc95484008f6362f93160ef3e56485015551919283927f290decd9548b62a8d60345a988386fc84ba6bc95484008f6362f93160ef3e5659091019061085f90826122bd565b506060820151600382019061087490826122bd565b50608082015160048201805460ff191691151591909117905560a082015160058201906108a190826122bd565b5050506001600160a01b0387811660009081526001602081815260408084208054808501825590855293829020865160069095020180546001600160a01b0319169490951693909317845584015190830155820151829190600282019061090890826122bd565b506060820151600382019061091d90826122bd565b50608082015160048201805460ff191691151591909117905560a0820151600582019061094a90826122bd565b50505050505050505050565b6109986040518060e001604052806000815260200160608152602001606081526020016060815260200160608152602001606081526020016000151581525090565b6001600160a01b038216600090815260026020908152604091829020825160e081019093528054835260018101805491928401916109d590612238565b80601f0160208091040260200160405190810160405280929190818152602001828054610a0190612238565b8015610a4e5780601f10610a2357610100808354040283529160200191610a4e565b820191906000526020600020905b815481529060010190602001808311610a3157829003601f168201915b50505050508152602001600282018054610a6790612238565b80601f0160208091040260200160405190810160405280929190818152602001828054610a9390612238565b8015610ae05780601f10610ab557610100808354040283529160200191610ae0565b820191906000526020600020905b815481529060010190602001808311610ac357829003601f168201915b50505050508152602001600382018054610af990612238565b80601f0160208091040260200160405190810160405280929190818152602001828054610b2590612238565b8015610b725780601f10610b4757610100808354040283529160200191610b72565b820191906000526020600020905b815481529060010190602001808311610b5557829003601f168201915b50505050508152602001600482018054610b8b90612238565b80601f0160208091040260200160405190810160405280929190818152602001828054610bb790612238565b8015610c045780601f10610bd957610100808354040283529160200191610c04565b820191906000526020600020905b815481529060010190602001808311610be757829003601f168201915b50505050508152602001600582018054610c1d90612238565b80601f0160208091040260200160405190810160405280929190818152602001828054610c4990612238565b8015610c965780601f10610c6b57610100808354040283529160200191610c96565b820191906000526020600020905b815481529060010190602001808311610c7957829003601f168201915b50505091835250506006919091015460ff16151560209091015292915050565b6001600160a01b03821660009081526001602052604081206060915b8154811015610dc25783828281548110610cee57610cee6123a2565b90600052602060002090600602016001015403610dba57818181548110610d1757610d176123a2565b90600052602060002090600602016003018054610d3390612238565b80601f0160208091040260200160405190810160405280929190818152602001828054610d5f90612238565b8015610dac5780601f10610d8157610100808354040283529160200191610dac565b820191906000526020600020905b815481529060010190602001808311610d8f57829003601f168201915b505050505092505050610e2a565b600101610cd2565b5060405162461bcd60e51b815260206004820152603660248201527f50617263656c206e6f7420666f756e6420666f722074686520737065636966696044820152751959081bdddb995c88185b99081c185c98d95b08125160521b60648201526084016103c3565b92915050565b6000548510610e7c5760405162461bcd60e51b815260206004820152601860248201527714185c98d95b08125108191bd95cc81b9bdd08195e1a5cdd60421b60448201526064016103c3565b6000808681548110610e9057610e906123a2565b906000526020600020906006020190505a600554610eae91906123b8565b341015610ef25760405162461bcd60e51b8152602060048201526012602482015271496e73756666696369656e742066756e647360701b60448201526064016103c3565b600554604051339180156108fc02916000818181858888f19350505050158015610f20573d6000803e3d6000fd5b5060028101610f2f86826122bd565b5060038101610f3e85826122bd565b5060048101805460ff191684151517905560058101610f5d83826122bd565b50505050505050565b610f6e611b58565b6001600160a01b0383166000908152600160205260408120905b81548110156111f95783828281548110610fa457610fa46123a2565b906000526020600020906006020160010154036111f157818181548110610fcd57610fcd6123a2565b90600052602060002090600602016040518060c00160405290816000820160009054906101000a90046001600160a01b03166001600160a01b03166001600160a01b031681526020016001820154815260200160028201805461102f90612238565b80601f016020809104026020016040519081016040528092919081815260200182805461105b90612238565b80156110a85780601f1061107d576101008083540402835291602001916110a8565b820191906000526020600020905b81548152906001019060200180831161108b57829003601f168201915b505050505081526020016003820180546110c190612238565b80601f01602080910402602001604051908101604052809291908181526020018280546110ed90612238565b801561113a5780601f1061110f5761010080835404028352916020019161113a565b820191906000526020600020905b81548152906001019060200180831161111d57829003601f168201915b5050509183525050600482015460ff161515602082015260058201805460409092019161116690612238565b80601f016020809104026020016040519081016040528092919081815260200182805461119290612238565b80156111df5780601f106111b4576101008083540402835291602001916111df565b820191906000526020600020905b8154815290600101906020018083116111c257829003601f168201915b50505050508152505092505050610e2a565b600101610f88565b5060405162461bcd60e51b815260206004820152601060248201526f14185c98d95b081b9bdd08199bdd5b9960821b60448201526064016103c3565b604051339081904780156108fc02916000818181858888f19350505050158015611263573d6000803e3d6000fd5b5050565b600080546060919067ffffffffffffffff81111561128757611287611bb5565b6040519080825280602002602001820160405280156112ba57816020015b60608152602001906001900390816112a55790505b50905060005b60005481101561139c57600081815481106112dd576112dd6123a2565b906000526020600020906006020160030180546112f990612238565b80601f016020809104026020016040519081016040528092919081815260200182805461132590612238565b80156113725780601f1061134757610100808354040283529160200191611372565b820191906000526020600020905b81548152906001019060200180831161135557829003601f168201915b5050505050828281518110611389576113896123a2565b60209081029190910101526001016112c0565b50919050565b600081815481106113b257600080fd5b60009182526020909120600690910201805460018201546002830180546001600160a01b0390931694509092916113e890612238565b80601f016020809104026020016040519081016040528092919081815260200182805461141490612238565b80156114615780601f1061143657610100808354040283529160200191611461565b820191906000526020600020905b81548152906001019060200180831161144457829003601f168201915b50505050509080600301805461147690612238565b80601f01602080910402602001604051908101604052809291908181526020018280546114a290612238565b80156114ef5780601f106114c4576101008083540402835291602001916114ef565b820191906000526020600020905b8154815290600101906020018083116114d257829003601f168201915b5050506004840154600585018054949560ff90921694919350915061151390612238565b80601f016020809104026020016040519081016040528092919081815260200182805461153f90612238565b801561158c5780601f106115615761010080835404028352916020019161158c565b820191906000526020600020905b81548152906001019060200180831161156f57829003601f168201915b5050505050905086565b600260205260009081526040902080546001820180549192916115b890612238565b80601f01602080910402602001604051908101604052809291908181526020018280546115e490612238565b80156116315780601f1061160657610100808354040283529160200191611631565b820191906000526020600020905b81548152906001019060200180831161161457829003601f168201915b50505050509080600201805461164690612238565b80601f016020809104026020016040519081016040528092919081815260200182805461167290612238565b80156116bf5780601f10611694576101008083540402835291602001916116bf565b820191906000526020600020905b8154815290600101906020018083116116a257829003601f168201915b5050505050908060030180546116d490612238565b80601f016020809104026020016040519081016040528092919081815260200182805461170090612238565b801561174d5780601f106117225761010080835404028352916020019161174d565b820191906000526020600020905b81548152906001019060200180831161173057829003601f168201915b50505050509080600401805461176290612238565b80601f016020809104026020016040519081016040528092919081815260200182805461178e90612238565b80156117db5780601f106117b0576101008083540402835291602001916117db565b820191906000526020600020905b8154815290600101906020018083116117be57829003601f168201915b5050505050908060050180546117f090612238565b80601f016020809104026020016040519081016040528092919081815260200182805461181c90612238565b80156118695780601f1061183e57610100808354040283529160200191611869565b820191906000526020600020905b81548152906001019060200180831161184c57829003601f168201915b5050506006909301549192505060ff1687565b6001602052816000526040600020818154811061189857600080fd5b60009182526020909120600690910201805460018201546002830180546001600160a01b039093169550909350906113e890612238565b6118d7611b58565b60005482106119235760405162461bcd60e51b815260206004820152601860248201527714185c98d95b08125108191bd95cc81b9bdd08195e1a5cdd60421b60448201526064016103c3565b60008281548110611936576119366123a2565b90600052602060002090600602016040518060c00160405290816000820160009054906101000a90046001600160a01b03166001600160a01b03166001600160a01b031681526020016001820154815260200160028201805461199890612238565b80601f01602080910402602001604051908101604052809291908181526020018280546119c490612238565b8015611a115780601f106119e657610100808354040283529160200191611a11565b820191906000526020600020905b8154815290600101906020018083116119f457829003601f168201915b50505050508152602001600382018054611a2a90612238565b80601f0160208091040260200160405190810160405280929190818152602001828054611a5690612238565b8015611aa35780601f10611a7857610100808354040283529160200191611aa3565b820191906000526020600020905b815481529060010190602001808311611a8657829003601f168201915b5050509183525050600482015460ff1615156020820152600582018054604090920191611acf90612238565b80601f0160208091040260200160405190810160405280929190818152602001828054611afb90612238565b8015611b485780601f10611b1d57610100808354040283529160200191611b48565b820191906000526020600020905b815481529060010190602001808311611b2b57829003601f168201915b5050505050815250509050919050565b6040518060c0016040528060006001600160a01b03168152602001600081526020016060815260200160608152602001600015158152602001606081525090565b80356001600160a01b0381168114611bb057600080fd5b919050565b634e487b7160e01b600052604160045260246000fd5b600082601f830112611bdc57600080fd5b813567ffffffffffffffff80821115611bf757611bf7611bb5565b604051601f8301601f19908116603f01168101908282118183101715611c1f57611c1f611bb5565b81604052838152866020858801011115611c3857600080fd5b836020870160208301376000602085830101528094505050505092915050565b60008060008060008060c08789031215611c7157600080fd5b611c7a87611b99565b9550602087013567ffffffffffffffff80821115611c9757600080fd5b611ca38a838b01611bcb565b96506040890135915080821115611cb957600080fd5b611cc58a838b01611bcb565b95506060890135915080821115611cdb57600080fd5b611ce78a838b01611bcb565b94506080890135915080821115611cfd57600080fd5b611d098a838b01611bcb565b935060a0890135915080821115611d1f57600080fd5b50611d2c89828a01611bcb565b9150509295509295509295565b600060208284031215611d4b57600080fd5b611d5482611b99565b9392505050565b6000815180845260005b81811015611d8157602081850181015186830182015201611d65565b506000602082860101526020601f19601f83011685010191505092915050565b60018060a01b038151168252602081015160208301526000604082015160c06040850152611dd260c0850182611d5b565b905060608301518482036060860152611deb8282611d5b565b91505060808301511515608085015260a083015184820360a0860152611e118282611d5b565b95945050505050565b600060208083016020845280855180835260408601915060408160051b87010192506020870160005b82811015611e7157603f19888603018452611e5f858351611da1565b94509285019290850190600101611e43565b5092979650505050505050565b80358015158114611bb057600080fd5b60008060008060008060c08789031215611ea757600080fd5b611eb087611b99565b955060208701359450604087013567ffffffffffffffff80821115611ed457600080fd5b611ee08a838b01611bcb565b95506060890135915080821115611ef657600080fd5b611f028a838b01611bcb565b9450611d0960808a01611e7e565b60208152815160208201526000602083015160e06040840152611f37610100840182611d5b565b90506040840151601f1980858403016060860152611f558383611d5b565b92506060860151915080858403016080860152611f728383611d5b565b925060808601519150808584030160a0860152611f8f8383611d5b565b925060a08601519150808584030160c086015250611fad8282611d5b565b91505060c0840151151560e08401528091505092915050565b60008060408385031215611fd957600080fd5b611fe283611b99565b946020939093013593505050565b602081526000611d546020830184611d5b565b600080600080600060a0868803121561201b57600080fd5b85359450602086013567ffffffffffffffff8082111561203a57600080fd5b61204689838a01611bcb565b9550604088013591508082111561205c57600080fd5b61206889838a01611bcb565b945061207660608901611e7e565b9350608088013591508082111561208c57600080fd5b5061209988828901611bcb565b9150509295509295909350565b602081526000611d546020830184611da1565b600060208083016020845280855180835260408601915060408160051b87010192506020870160005b82811015611e7157603f198886030184526120fe858351611d5b565b945092850192908501906001016120e2565b60006020828403121561212257600080fd5b5035919050565b60018060a01b038716815285602082015260c06040820152600061215060c0830187611d5b565b82810360608401526121628187611d5b565b9050841515608084015282810360a084015261217e8185611d5b565b9998505050505050505050565b87815260e0602082015260006121a460e0830189611d5b565b82810360408401526121b68189611d5b565b905082810360608401526121ca8188611d5b565b905082810360808401526121de8187611d5b565b905082810360a08401526121f28186611d5b565b91505082151560c083015298975050505050505050565b634e487b7160e01b600052601160045260246000fd5b60006001820161223157612231612209565b5060010190565b600181811c9082168061224c57607f821691505b60208210810361139c57634e487b7160e01b600052602260045260246000fd5b601f8211156122b8576000816000526020600020601f850160051c810160208610156122955750805b601f850160051c820191505b818110156122b4578281556001016122a1565b5050505b505050565b815167ffffffffffffffff8111156122d7576122d7611bb5565b6122eb816122e58454612238565b8461226c565b602080601f83116001811461232057600084156123085750858301515b600019600386901b1c1916600185901b1785556122b4565b600085815260208120601f198616915b8281101561234f57888601518255948401946001909101908401612330565b508582101561236d5787850151600019600388901b60f8161c191681555b5050505050600190811b01905550565b6040815260006123906040830185611d5b565b8281036020840152611e118185611d5b565b634e487b7160e01b600052603260045260246000fd5b80820180821115610e2a57610e2a61220956fea26469706673582212208e9864ae8473388a30979b801ede003616860a1d9575939e59b2cb22f9174c9364736f6c63430008180033",
  "linkReferences": {},
  "deployedLinkReferences": {}
}