{
  "_format": "hh-sol-artifact-1",
  "contractName": "AssetRegistry",
  "sourceName": "contracts/AssetRegistry.sol",
  "abi": [
    {
      "inputs": [
        {
          "internalType": "uint256",
          "name": "",
          "type": "uint256"
        }
      ],
      "name": "Registry",
      "outputs": [
        {
          "internalType": "string",
          "name": "location",
          "type": "string"
        },
        {
          "internalType": "string",
          "name": "description",
          "type": "string"
        },
        {
          "internalType": "bool",
          "name": "hasLegalDocument",
          "type": "bool"
        }
      ],
      "stateMutability": "view",
      "type": "function"
    },
    {
      "inputs": [
        {
          "internalType": "string",
          "name": "_location",
          "type": "string"
        },
        {
          "internalType": "string",
          "name": "_description",
          "type": "string"
        },
        {
          "internalType": "uint256[]",
          "name": "_long",
          "type": "uint256[]"
        },
        {
          "internalType": "uint256[]",
          "name": "_lat",
          "type": "uint256[]"
        },
        {
          "internalType": "bool",
          "name": "_hasLegalDocument",
          "type": "bool"
        }
      ],
      "name": "createAsset",
      "outputs": [],
      "stateMutability": "nonpayable",
      "type": "function"
    },
    {
      "inputs": [],
      "name": "retrieveAllAsset",
      "outputs": [
        {
          "components": [
            {
              "internalType": "string",
              "name": "location",
              "type": "string"
            },
            {
              "internalType": "string",
              "name": "description",
              "type": "string"
            },
            {
              "internalType": "uint256[]",
              "name": "longitudes",
              "type": "uint256[]"
            },
            {
              "internalType": "uint256[]",
              "name": "latitudes",
              "type": "uint256[]"
            },
            {
              "internalType": "bool",
              "name": "hasLegalDocument",
              "type": "bool"
            }
          ],
          "internalType": "struct AssetRegistry.Asset[]",
          "name": "",
          "type": "tuple[]"
        }
      ],
      "stateMutability": "view",
      "type": "function"
    },
    {
      "inputs": [],
      "name": "retrieveAnAsset",
      "outputs": [
        {
          "components": [
            {
              "internalType": "string",
              "name": "location",
              "type": "string"
            },
            {
              "internalType": "string",
              "name": "description",
              "type": "string"
            },
            {
              "internalType": "uint256[]",
              "name": "longitudes",
              "type": "uint256[]"
            },
            {
              "internalType": "uint256[]",
              "name": "latitudes",
              "type": "uint256[]"
            },
            {
              "internalType": "bool",
              "name": "hasLegalDocument",
              "type": "bool"
            }
          ],
          "internalType": "struct AssetRegistry.Asset[]",
          "name": "",
          "type": "tuple[]"
        }
      ],
      "stateMutability": "view",
      "type": "function"
    }
  ],
  "bytecode": "0x608060405234801561001057600080fd5b50610cd6806100206000396000f3fe608060405234801561001057600080fd5b506004361061004c5760003560e01c80632aae068b1461005157806384a337ac146100665780638bcfff2314610091578063e731028c146100a6575b600080fd5b61006461005f3660046108f0565b6100ae565b005b6100796100743660046109b7565b61018b565b60405161008893929190610a16565b60405180910390f35b6100996102d8565b6040516100889190610a8a565b61009961051d565b6040805160a0810182528681526020810186905290810184905260608101839052811515608082015260008054600181018255908052815182916005027f290decd9548b62a8d60345a988386fc84ba6bc95484008f6362f93160ef3e5630190819061011a9082610be0565b506020820151600182019061012f9082610be0565b506040820151805161014b916002840191602090910190610759565b5060608201518051610167916003840191602090910190610759565b50608091909101516004909101805460ff1916911515919091179055505050505050565b6000818154811061019b57600080fd5b90600052602060002090600502016000915090508060000180546101be90610b55565b80601f01602080910402602001604051908101604052809291908181526020018280546101ea90610b55565b80156102375780601f1061020c57610100808354040283529160200191610237565b820191906000526020600020905b81548152906001019060200180831161021a57829003601f168201915b50505050509080600101805461024c90610b55565b80601f016020809104026020016040519081016040528092919081815260200182805461027890610b55565b80156102c55780601f1061029a576101008083540402835291602001916102c5565b820191906000526020600020905b8154815290600101906020018083116102a857829003601f168201915b5050506004909301549192505060ff1683565b60606000805480602002602001604051908101604052809291908181526020016000905b8282101561051457838290600052602060002090600502016040518060a001604052908160008201805461032f90610b55565b80601f016020809104026020016040519081016040528092919081815260200182805461035b90610b55565b80156103a85780601f1061037d576101008083540402835291602001916103a8565b820191906000526020600020905b81548152906001019060200180831161038b57829003601f168201915b505050505081526020016001820180546103c190610b55565b80601f01602080910402602001604051908101604052809291908181526020018280546103ed90610b55565b801561043a5780601f1061040f5761010080835404028352916020019161043a565b820191906000526020600020905b81548152906001019060200180831161041d57829003601f168201915b505050505081526020016002820180548060200260200160405190810160405280929190818152602001828054801561049257602002820191906000526020600020905b81548152602001906001019080831161047e575b50505050508152602001600382018054806020026020016040519081016040528092919081815260200182805480156104ea57602002820191906000526020600020905b8154815260200190600101908083116104d6575b50505091835250506004919091015460ff16151560209182015290825260019290920191016102fc565b50505050905090565b60606000805480602002602001604051908101604052809291908181526020016000905b8282101561051457838290600052602060002090600502016040518060a001604052908160008201805461057490610b55565b80601f01602080910402602001604051908101604052809291908181526020018280546105a090610b55565b80156105ed5780601f106105c2576101008083540402835291602001916105ed565b820191906000526020600020905b8154815290600101906020018083116105d057829003601f168201915b5050505050815260200160018201805461060690610b55565b80601f016020809104026020016040519081016040528092919081815260200182805461063290610b55565b801561067f5780601f106106545761010080835404028352916020019161067f565b820191906000526020600020905b81548152906001019060200180831161066257829003601f168201915b50505050508152602001600282018054806020026020016040519081016040528092919081815260200182805480156106d757602002820191906000526020600020905b8154815260200190600101908083116106c3575b505050505081526020016003820180548060200260200160405190810160405280929190818152602001828054801561072f57602002820191906000526020600020905b81548152602001906001019080831161071b575b50505091835250506004919091015460ff1615156020918201529082526001929092019101610541565b828054828255906000526020600020908101928215610794579160200282015b82811115610794578251825591602001919060010190610779565b506107a09291506107a4565b5090565b5b808211156107a057600081556001016107a5565b634e487b7160e01b600052604160045260246000fd5b604051601f8201601f1916810167ffffffffffffffff811182821017156107f8576107f86107b9565b604052919050565b600082601f83011261081157600080fd5b813567ffffffffffffffff81111561082b5761082b6107b9565b61083e601f8201601f19166020016107cf565b81815284602083860101111561085357600080fd5b816020850160208301376000918101602001919091529392505050565b600082601f83011261088157600080fd5b8135602067ffffffffffffffff82111561089d5761089d6107b9565b8160051b6108ac8282016107cf565b92835284810182019282810190878511156108c657600080fd5b83870192505b848310156108e5578235825291830191908301906108cc565b979650505050505050565b600080600080600060a0868803121561090857600080fd5b853567ffffffffffffffff8082111561092057600080fd5b61092c89838a01610800565b9650602088013591508082111561094257600080fd5b61094e89838a01610800565b9550604088013591508082111561096457600080fd5b61097089838a01610870565b9450606088013591508082111561098657600080fd5b5061099388828901610870565b925050608086013580151581146109a957600080fd5b809150509295509295909350565b6000602082840312156109c957600080fd5b5035919050565b6000815180845260005b818110156109f6576020818501810151868301820152016109da565b506000602082860101526020601f19601f83011685010191505092915050565b606081526000610a2960608301866109d0565b8281036020840152610a3b81866109d0565b9150508215156040830152949350505050565b60008151808452602080850194506020840160005b83811015610a7f57815187529582019590820190600101610a63565b509495945050505050565b600060208083018184528085518083526040925060408601915060408160051b87010184880160005b83811015610b4757603f19898403018552815160a08151818652610ad9828701826109d0565b915050888201518582038a870152610af182826109d0565b9150508782015185820389870152610b098282610a4e565b91505060608083015186830382880152610b238382610a4e565b60809485015115159790940196909652505094870194925090860190600101610ab3565b509098975050505050505050565b600181811c90821680610b6957607f821691505b602082108103610b8957634e487b7160e01b600052602260045260246000fd5b50919050565b601f821115610bdb576000816000526020600020601f850160051c81016020861015610bb85750805b601f850160051c820191505b81811015610bd757828155600101610bc4565b5050505b505050565b815167ffffffffffffffff811115610bfa57610bfa6107b9565b610c0e81610c088454610b55565b84610b8f565b602080601f831160018114610c435760008415610c2b5750858301515b600019600386901b1c1916600185901b178555610bd7565b600085815260208120601f198616915b82811015610c7257888601518255948401946001909101908401610c53565b5085821015610c905787850151600019600388901b60f8161c191681555b5050505050600190811b0190555056fea2646970667358221220abc416451d840978c0207a7b27576d399603d8bec7d6387432b85f275cc8f76064736f6c63430008180033",
  "linkReferences": {},
  "deployedLinkReferences": {}
}